{
  "contractName": "Marketplace",
  "abi": [
    {
      "inputs": [],
      "stateMutability": "nonpayable",
      "type": "constructor"
    },
    {
      "anonymous": false,
      "inputs": [
        {
          "indexed": false,
          "internalType": "uint256",
          "name": "orderId",
          "type": "uint256"
        }
      ],
      "name": "OrderCancelled",
      "type": "event"
    },
    {
      "anonymous": false,
      "inputs": [
        {
          "indexed": false,
          "internalType": "uint256",
          "name": "orderId",
          "type": "uint256"
        }
      ],
      "name": "OrderCompleted",
      "type": "event"
    },
    {
      "anonymous": false,
      "inputs": [
        {
          "indexed": false,
          "internalType": "uint256",
          "name": "id",
          "type": "uint256"
        },
        {
          "indexed": false,
          "internalType": "string",
          "name": "name",
          "type": "string"
        },
        {
          "indexed": false,
          "internalType": "uint256",
          "name": "price",
          "type": "uint256"
        },
        {
          "indexed": false,
          "internalType": "address",
          "name": "seller",
          "type": "address"
        },
        {
          "indexed": false,
          "internalType": "uint256",
          "name": "stock",
          "type": "uint256"
        }
      ],
      "name": "ProductCreated",
      "type": "event"
    },
    {
      "anonymous": false,
      "inputs": [
        {
          "indexed": false,
          "internalType": "uint256",
          "name": "orderId",
          "type": "uint256"
        },
        {
          "indexed": false,
          "internalType": "uint256",
          "name": "productId",
          "type": "uint256"
        },
        {
          "indexed": false,
          "internalType": "uint256",
          "name": "quantity",
          "type": "uint256"
        },
        {
          "indexed": false,
          "internalType": "uint256",
          "name": "totalPrice",
          "type": "uint256"
        },
        {
          "indexed": false,
          "internalType": "address",
          "name": "buyer",
          "type": "address"
        },
        {
          "indexed": false,
          "internalType": "address",
          "name": "seller",
          "type": "address"
        }
      ],
      "name": "ProductPurchased",
      "type": "event"
    },
    {
      "anonymous": false,
      "inputs": [
        {
          "indexed": false,
          "internalType": "uint256",
          "name": "id",
          "type": "uint256"
        },
        {
          "indexed": false,
          "internalType": "string",
          "name": "name",
          "type": "string"
        },
        {
          "indexed": false,
          "internalType": "uint256",
          "name": "price",
          "type": "uint256"
        },
        {
          "indexed": false,
          "internalType": "bool",
          "name": "isActive",
          "type": "bool"
        },
        {
          "indexed": false,
          "internalType": "uint256",
          "name": "stock",
          "type": "uint256"
        }
      ],
      "name": "ProductUpdated",
      "type": "event"
    },
    {
      "inputs": [],
      "name": "orderCount",
      "outputs": [
        {
          "internalType": "uint256",
          "name": "",
          "type": "uint256"
        }
      ],
      "stateMutability": "view",
      "type": "function",
      "constant": true
    },
    {
      "inputs": [
        {
          "internalType": "uint256",
          "name": "",
          "type": "uint256"
        }
      ],
      "name": "orders",
      "outputs": [
        {
          "internalType": "uint256",
          "name": "id",
          "type": "uint256"
        },
        {
          "internalType": "uint256",
          "name": "productId",
          "type": "uint256"
        },
        {
          "internalType": "uint256",
          "name": "quantity",
          "type": "uint256"
        },
        {
          "internalType": "uint256",
          "name": "totalPrice",
          "type": "uint256"
        },
        {
          "internalType": "address",
          "name": "buyer",
          "type": "address"
        },
        {
          "internalType": "address",
          "name": "seller",
          "type": "address"
        },
        {
          "internalType": "bool",
          "name": "isCompleted",
          "type": "bool"
        },
        {
          "internalType": "bool",
          "name": "isCancelled",
          "type": "bool"
        }
      ],
      "stateMutability": "view",
      "type": "function",
      "constant": true
    },
    {
      "inputs": [],
      "name": "owner",
      "outputs": [
        {
          "internalType": "address",
          "name": "",
          "type": "address"
        }
      ],
      "stateMutability": "view",
      "type": "function",
      "constant": true
    },
    {
      "inputs": [],
      "name": "productCount",
      "outputs": [
        {
          "internalType": "uint256",
          "name": "",
          "type": "uint256"
        }
      ],
      "stateMutability": "view",
      "type": "function",
      "constant": true
    },
    {
      "inputs": [
        {
          "internalType": "uint256",
          "name": "",
          "type": "uint256"
        }
      ],
      "name": "products",
      "outputs": [
        {
          "internalType": "uint256",
          "name": "id",
          "type": "uint256"
        },
        {
          "internalType": "string",
          "name": "name",
          "type": "string"
        },
        {
          "internalType": "string",
          "name": "description",
          "type": "string"
        },
        {
          "internalType": "uint256",
          "name": "price",
          "type": "uint256"
        },
        {
          "internalType": "address payable",
          "name": "seller",
          "type": "address"
        },
        {
          "internalType": "bool",
          "name": "isActive",
          "type": "bool"
        },
        {
          "internalType": "uint256",
          "name": "stock",
          "type": "uint256"
        }
      ],
      "stateMutability": "view",
      "type": "function",
      "constant": true
    },
    {
      "inputs": [
        {
          "internalType": "address",
          "name": "",
          "type": "address"
        },
        {
          "internalType": "uint256",
          "name": "",
          "type": "uint256"
        }
      ],
      "name": "userOrders",
      "outputs": [
        {
          "internalType": "uint256",
          "name": "",
          "type": "uint256"
        }
      ],
      "stateMutability": "view",
      "type": "function",
      "constant": true
    },
    {
      "inputs": [
        {
          "internalType": "address",
          "name": "",
          "type": "address"
        },
        {
          "internalType": "uint256",
          "name": "",
          "type": "uint256"
        }
      ],
      "name": "userProducts",
      "outputs": [
        {
          "internalType": "uint256",
          "name": "",
          "type": "uint256"
        }
      ],
      "stateMutability": "view",
      "type": "function",
      "constant": true
    },
    {
      "inputs": [
        {
          "internalType": "string",
          "name": "_name",
          "type": "string"
        },
        {
          "internalType": "string",
          "name": "_description",
          "type": "string"
        },
        {
          "internalType": "uint256",
          "name": "_price",
          "type": "uint256"
        },
        {
          "internalType": "uint256",
          "name": "_stock",
          "type": "uint256"
        }
      ],
      "name": "createProduct",
      "outputs": [
        {
          "internalType": "uint256",
          "name": "",
          "type": "uint256"
        }
      ],
      "stateMutability": "nonpayable",
      "type": "function"
    },
    {
      "inputs": [
        {
          "internalType": "uint256",
          "name": "_productId",
          "type": "uint256"
        },
        {
          "internalType": "string",
          "name": "_name",
          "type": "string"
        },
        {
          "internalType": "string",
          "name": "_description",
          "type": "string"
        },
        {
          "internalType": "uint256",
          "name": "_price",
          "type": "uint256"
        },
        {
          "internalType": "bool",
          "name": "_isActive",
          "type": "bool"
        },
        {
          "internalType": "uint256",
          "name": "_stock",
          "type": "uint256"
        }
      ],
      "name": "updateProduct",
      "outputs": [],
      "stateMutability": "nonpayable",
      "type": "function"
    },
    {
      "inputs": [
        {
          "internalType": "uint256",
          "name": "_productId",
          "type": "uint256"
        },
        {
          "internalType": "uint256",
          "name": "_quantity",
          "type": "uint256"
        }
      ],
      "name": "purchaseProduct",
      "outputs": [
        {
          "internalType": "uint256",
          "name": "",
          "type": "uint256"
        }
      ],
      "stateMutability": "payable",
      "type": "function",
      "payable": true
    },
    {
      "inputs": [
        {
          "internalType": "uint256",
          "name": "_orderId",
          "type": "uint256"
        }
      ],
      "name": "completeOrder",
      "outputs": [],
      "stateMutability": "nonpayable",
      "type": "function"
    },
    {
      "inputs": [
        {
          "internalType": "uint256",
          "name": "_orderId",
          "type": "uint256"
        }
      ],
      "name": "cancelOrder",
      "outputs": [],
      "stateMutability": "nonpayable",
      "type": "function"
    },
    {
      "inputs": [],
      "name": "getSellerProducts",
      "outputs": [
        {
          "internalType": "uint256[]",
          "name": "",
          "type": "uint256[]"
        }
      ],
      "stateMutability": "view",
      "type": "function",
      "constant": true
    },
    {
      "inputs": [],
      "name": "getBuyerOrders",
      "outputs": [
        {
          "internalType": "uint256[]",
          "name": "",
          "type": "uint256[]"
        }
      ],
      "stateMutability": "view",
      "type": "function",
      "constant": true
    },
    {
      "inputs": [
        {
          "internalType": "uint256",
          "name": "_productId",
          "type": "uint256"
        }
      ],
      "name": "getProduct",
      "outputs": [
        {
          "internalType": "uint256",
          "name": "id",
          "type": "uint256"
        },
        {
          "internalType": "string",
          "name": "name",
          "type": "string"
        },
        {
          "internalType": "string",
          "name": "description",
          "type": "string"
        },
        {
          "internalType": "uint256",
          "name": "price",
          "type": "uint256"
        },
        {
          "internalType": "address",
          "name": "seller",
          "type": "address"
        },
        {
          "internalType": "bool",
          "name": "isActive",
          "type": "bool"
        },
        {
          "internalType": "uint256",
          "name": "stock",
          "type": "uint256"
        }
      ],
      "stateMutability": "view",
      "type": "function",
      "constant": true
    },
    {
      "inputs": [
        {
          "internalType": "uint256",
          "name": "_orderId",
          "type": "uint256"
        }
      ],
      "name": "getOrder",
      "outputs": [
        {
          "internalType": "uint256",
          "name": "id",
          "type": "uint256"
        },
        {
          "internalType": "uint256",
          "name": "productId",
          "type": "uint256"
        },
        {
          "internalType": "uint256",
          "name": "quantity",
          "type": "uint256"
        },
        {
          "internalType": "uint256",
          "name": "totalPrice",
          "type": "uint256"
        },
        {
          "internalType": "address",
          "name": "buyer",
          "type": "address"
        },
        {
          "internalType": "address",
          "name": "seller",
          "type": "address"
        },
        {
          "internalType": "bool",
          "name": "isCompleted",
          "type": "bool"
        },
        {
          "internalType": "bool",
          "name": "isCancelled",
          "type": "bool"
        }
      ],
      "stateMutability": "view",
      "type": "function",
      "constant": true
    }
  ],
  "bytecode": "0x60806040526000600155600060025534801561001a57600080fd5b50600080546001600160a01b031916331790556119f68061003c6000396000f3fe6080604052600436106100f35760003560e01c806390d16cba1161008a578063b9db15b411610059578063b9db15b414610345578063c819998b14610365578063d09ef2411461037a578063e0f6ef871461039a57600080fd5b806390d16cba14610234578063a044042614610254578063a85c38ef14610267578063b6adaaff1461032557600080fd5b80636f81be49116100c65780636f81be49146101895780637acc0b20146101a9578063856652e9146101dc5780638da5cb5b146101fc57600080fd5b806301b3490d146100f85780632453ffa8146101235780633d52788314610147578063514fcac714610167575b600080fd5b34801561010457600080fd5b5061010d6103b0565b60405161011a9190611407565b60405180910390f35b34801561012f57600080fd5b5061013960025481565b60405190815260200161011a565b34801561015357600080fd5b5061013961016236600461144b565b610411565b34801561017357600080fd5b50610187610182366004611483565b610442565b005b34801561019557600080fd5b506101876101a436600461153f565b6105f7565b3480156101b557600080fd5b506101c96101c4366004611483565b6107ae565b60405161011a979695949392919061161e565b3480156101e857600080fd5b506101396101f736600461144b565b61090a565b34801561020857600080fd5b5060005461021c906001600160a01b031681565b6040516001600160a01b03909116815260200161011a565b34801561024057600080fd5b5061013961024f366004611679565b610926565b6101396102623660046116ed565b610b3d565b34801561027357600080fd5b506102da610282366004611483565b60046020819052600091825260409091208054600182015460028301546003840154948401546005909401549294919390926001600160a01b039182169181169060ff600160a01b8204811691600160a81b90041688565b6040805198895260208901979097529587019490945260608601929092526001600160a01b0390811660808601521660a0840152151560c0830152151560e08201526101000161011a565b34801561033157600080fd5b50610187610340366004611483565b610f0d565b34801561035157600080fd5b506101c9610360366004611483565b6110c5565b34801561037157600080fd5b5061010d6112c9565b34801561038657600080fd5b506102da610395366004611483565b611328565b3480156103a657600080fd5b5061013960015481565b3360009081526005602090815260409182902080548351818402810184019094528084526060939283018282801561040757602002820191906000526020600020905b8154815260200190600101908083116103f3575b5050505050905090565b6005602052816000526040600020818154811061042d57600080fd5b90600052602060002001600091509150505481565b6000546001600160a01b031633146104b05760405162461bcd60e51b815260206004820152602660248201527f4f6e6c7920746865206f776e65722063616e20706572666f726d20746869732060448201526530b1ba34b7b760d11b60648201526084015b60405180910390fd5b6000811180156104c257506002548111155b6104de5760405162461bcd60e51b81526004016104a79061170f565b60008181526004602052604090206005810154600160a01b900460ff16156105485760405162461bcd60e51b815260206004820152601a60248201527f4f7264657220697320616c726561647920636f6d706c6574656400000000000060448201526064016104a7565b6005810154600160a81b900460ff16156105a45760405162461bcd60e51b815260206004820152601a60248201527f4f7264657220697320616c72656164792063616e63656c6c656400000000000060448201526064016104a7565b60058101805460ff60a81b1916600160a81b1790556040517f61b9399f2f0f32ca39ce8d7be32caed5ec22fe07a6daba3a467ed479ec606582906105eb9084815260200190565b60405180910390a15050565b60008681526003602052604090206004015486906001600160a01b031633146106725760405162461bcd60e51b815260206004820152602760248201527f4f6e6c79207468652073656c6c65722063616e20706572666f726d20746869736044820152661030b1ba34b7b760c91b60648201526084016104a7565b60008711801561068457506001548711155b6106a05760405162461bcd60e51b81526004016104a790611739565b60008651116106f15760405162461bcd60e51b815260206004820152601c60248201527f50726f64756374206e616d652063616e6e6f7420626520656d7074790000000060448201526064016104a7565b600084116107115760405162461bcd60e51b81526004016104a790611765565b60008781526003602052604090206001810161072d8882611832565b506002810161073c8782611832565b506003810185905560048101805460ff60a01b1916600160a01b86151502179055600581018390556040517f463b6c08196f54cba09afca7abb9322cbb75b53a70e3e269407db3bc8c913c299061079c908a908a908990899089906118f2565b60405180910390a15050505050505050565b600360205260009081526040902080546001820180549192916107d0906117a9565b80601f01602080910402602001604051908101604052809291908181526020018280546107fc906117a9565b80156108495780601f1061081e57610100808354040283529160200191610849565b820191906000526020600020905b81548152906001019060200180831161082c57829003601f168201915b50505050509080600201805461085e906117a9565b80601f016020809104026020016040519081016040528092919081815260200182805461088a906117a9565b80156108d75780601f106108ac576101008083540402835291602001916108d7565b820191906000526020600020905b8154815290600101906020018083116108ba57829003601f168201915b5050505060038301546004840154600590940154929390926001600160a01b0382169250600160a01b90910460ff169087565b6006602052816000526040600020818154811061042d57600080fd5b6000808551116109785760405162461bcd60e51b815260206004820152601c60248201527f50726f64756374206e616d652063616e6e6f7420626520656d7074790000000060448201526064016104a7565b600083116109985760405162461bcd60e51b81526004016104a790611765565b600082116109f45760405162461bcd60e51b8152602060048201526024808201527f50726f647563742073746f636b206d75737420626520677265617465722074686044820152630616e20360e41b60648201526084016104a7565b60018054906000610a048361193e565b90915550506040805160e0810182526001805480835260208084018a81528486018a90526060850189905233608086015260a0850184905260c085018890526000928352600390915293902082518155925191929190820190610a679082611832565b5060408201516002820190610a7c9082611832565b5060608201516003820155608082015160048201805460a08501511515600160a01b026001600160a81b03199091166001600160a01b039093169290921791909117905560c0909101516005918201553360008181526020928352604080822060018054825480830184559285529590932001939093555491517ff7e1c86948ba511ee8b6ca6747c4dc391e5f2579f120e790fe479c2300468f0692610b29929091899188918890611957565b60405180910390a150600154949350505050565b60008083118015610b5057506001548311155b610b6c5760405162461bcd60e51b81526004016104a790611739565b60008381526003602052604090206004810154600160a01b900460ff16610be35760405162461bcd60e51b815260206004820152602560248201527f50726f64756374206973206e6f7420617661696c61626c6520666f7220707572604482015264636861736560d81b60648201526084016104a7565b8281600501541015610c375760405162461bcd60e51b815260206004820152601a60248201527f4e6f7420656e6f7567682073746f636b20617661696c61626c6500000000000060448201526064016104a7565b6004810154336001600160a01b0390911603610c955760405162461bcd60e51b815260206004820152601f60248201527f596f752063616e6e6f742062757920796f7572206f776e2070726f647563740060448201526064016104a7565b6000838260030154610ca79190611996565b905080341015610cf95760405162461bcd60e51b815260206004820152601760248201527f496e73756666696369656e742066756e64732073656e7400000000000000000060448201526064016104a7565b60028054906000610d098361193e565b909155505060408051610100810182526002805480835260208084018a81528486018a81526060860188815233608088018181526004808d01546001600160a01b0390811660a08c01908152600060c08d0181815260e08e018281529b8252848b528e82209d518e55985160018e81019190915597518d8d0155955160038d01559251918b0180549282166001600160a01b03199093169290921790915590516005998a018054965198511515600160a81b0260ff60a81b19991515600160a01b026001600160a81b03199098169290931691909117959095179690961695909517909255928152600682529485209254835492830184559285528420015583018054869290610e1a9084906119ad565b909155505060048201546040516001600160a01b039091169082156108fc029083906000818181858888f19350505050158015610e5b573d6000803e3d6000fd5b5080341115610e9c57336108fc610e7283346119ad565b6040518115909202916000818181858888f19350505050158015610e9a573d6000803e3d6000fd5b505b600254600483015460408051928352602083018890528201869052606082018390523360808301526001600160a01b031660a08201527f1dc8be59ad0a0b9af457e578da26ffcaa447436bb9964a0a4ce1d328579407e99060c00160405180910390a1600254925050505b92915050565b6000818152600460208190526040909120015481906001600160a01b03163314610f885760405162461bcd60e51b815260206004820152602660248201527f4f6e6c79207468652062757965722063616e20706572666f726d20746869732060448201526530b1ba34b7b760d11b60648201526084016104a7565b600082118015610f9a57506002548211155b610fb65760405162461bcd60e51b81526004016104a79061170f565b60008281526004602052604090206005810154600160a01b900460ff16156110205760405162461bcd60e51b815260206004820152601a60248201527f4f7264657220697320616c726561647920636f6d706c6574656400000000000060448201526064016104a7565b6005810154600160a81b900460ff16156110715760405162461bcd60e51b815260206004820152601260248201527113dc99195c881a5cc818d85b98d95b1b195960721b60448201526064016104a7565b60058101805460ff60a01b1916600160a01b1790556040517f02a7d4d9472af7118644884b9a0ee443540c0027e938dd0aa35be8ecbe946c0a906110b89085815260200190565b60405180910390a1505050565b60006060806000806000806000881180156110e257506001548811155b6110fe5760405162461bcd60e51b81526004016104a790611739565b6000600360008a81526020019081526020016000206040518060e001604052908160008201548152602001600182018054611138906117a9565b80601f0160208091040260200160405190810160405280929190818152602001828054611164906117a9565b80156111b15780601f10611186576101008083540402835291602001916111b1565b820191906000526020600020905b81548152906001019060200180831161119457829003601f168201915b505050505081526020016002820180546111ca906117a9565b80601f01602080910402602001604051908101604052809291908181526020018280546111f6906117a9565b80156112435780601f1061121857610100808354040283529160200191611243565b820191906000526020600020905b81548152906001019060200180831161122657829003601f168201915b5050509183525050600382015460208083019190915260048301546001600160a01b038116604080850191909152600160a01b90910460ff16151560608085019190915260059094015460809384015284519185015190850151938501519285015160a086015160c090960151929f919e50939c50919a50919850919650945092505050565b3360009081526006602090815260409182902080548351818402810184019094528084526060939283018282801561040757602002820191906000526020600020908154815260200190600101908083116103f3575050505050905090565b60008060008060008060008060008911801561134657506002548911155b6113625760405162461bcd60e51b81526004016104a79061170f565b5050506000958652505060046020818152604095869020865161010081018852815480825260018301549382018490526002830154988201899052600383015460608301819052948301546001600160a01b039081166080840181905260059094015490811660a0840181905260ff600160a01b83048116151560c08601819052600160a81b90930416151560e0909401849052919a94999850949650919450909291565b6020808252825182820181905260009190848201906040850190845b8181101561143f57835183529284019291840191600101611423565b50909695505050505050565b6000806040838503121561145e57600080fd5b82356001600160a01b038116811461147557600080fd5b946020939093013593505050565b60006020828403121561149557600080fd5b5035919050565b634e487b7160e01b600052604160045260246000fd5b600082601f8301126114c357600080fd5b813567ffffffffffffffff808211156114de576114de61149c565b604051601f8301601f19908116603f011681019082821181831017156115065761150661149c565b8160405283815286602085880101111561151f57600080fd5b836020870160208301376000602085830101528094505050505092915050565b60008060008060008060c0878903121561155857600080fd5b86359550602087013567ffffffffffffffff8082111561157757600080fd5b6115838a838b016114b2565b9650604089013591508082111561159957600080fd5b506115a689828a016114b2565b94505060608701359250608087013580151581146115c357600080fd5b8092505060a087013590509295509295509295565b6000815180845260005b818110156115fe576020818501810151868301820152016115e2565b506000602082860101526020601f19601f83011685010191505092915050565b87815260e06020820152600061163760e08301896115d8565b828103604084015261164981896115d8565b606084019790975250506001600160a01b0393909316608084015290151560a083015260c0909101529392505050565b6000806000806080858703121561168f57600080fd5b843567ffffffffffffffff808211156116a757600080fd5b6116b3888389016114b2565b955060208701359150808211156116c957600080fd5b506116d6878288016114b2565b949794965050505060408301359260600135919050565b6000806040838503121561170057600080fd5b50508035926020909101359150565b60208082526010908201526f125b9d985b1a59081bdc99195c88125160821b604082015260600190565b602080825260129082015271125b9d985b1a59081c1c9bd91d58dd08125160721b604082015260600190565b60208082526024908201527f50726f64756374207072696365206d75737420626520677265617465722074686040820152630616e20360e41b606082015260800190565b600181811c908216806117bd57607f821691505b6020821081036117dd57634e487b7160e01b600052602260045260246000fd5b50919050565b601f82111561182d57600081815260208120601f850160051c8101602086101561180a5750805b601f850160051c820191505b8181101561182957828155600101611816565b5050505b505050565b815167ffffffffffffffff81111561184c5761184c61149c565b6118608161185a84546117a9565b846117e3565b602080601f831160018114611895576000841561187d5750858301515b600019600386901b1c1916600185901b178555611829565b600085815260208120601f198616915b828110156118c4578886015182559484019460019091019084016118a5565b50858210156118e25787850151600019600388901b60f8161c191681555b5050505050600190811b01905550565b85815260a06020820152600061190b60a08301876115d8565b604083019590955250911515606083015260809091015292915050565b634e487b7160e01b600052601160045260246000fd5b60006001820161195057611950611928565b5060010190565b85815260a06020820152600061197060a08301876115d8565b6040830195909552506001600160a01b0392909216606083015260809091015292915050565b8082028115828204841417610f0757610f07611928565b81810381811115610f0757610f0761192856fea2646970667358221220ec9a2986a31475e49e6298b19fe0564839a60215515f689c1f7d8725ed0f9dfd64736f6c63430008130033",
  "immutableReferences": {},
  "source": "// SPDX-License-Identifier: MIT\r\npragma solidity ^0.8.0;\r\n\r\n/**\r\n * @title Marketplace\r\n * @dev Main contract for the blockchain e-commerce platform\r\n */\r\ncontract Marketplace {\r\n    address public owner;\r\n    uint256 public productCount = 0;\r\n    uint256 public orderCount = 0;\r\n    \r\n    struct Product {\r\n        uint256 id;\r\n        string name;\r\n        string description;\r\n        uint256 price;\r\n        address payable seller;\r\n        bool isActive;\r\n        uint256 stock;\r\n    }\r\n    \r\n    struct Order {\r\n        uint256 id;\r\n        uint256 productId;\r\n        uint256 quantity;\r\n        uint256 totalPrice;\r\n        address buyer;\r\n        address seller;\r\n        bool isCompleted;\r\n        bool isCancelled;\r\n    }\r\n    \r\n    mapping(uint256 => Product) public products;\r\n    mapping(uint256 => Order) public orders;\r\n    mapping(address => uint256[]) public userProducts;\r\n    mapping(address => uint256[]) public userOrders;\r\n    \r\n    event ProductCreated(\r\n        uint256 id,\r\n        string name,\r\n        uint256 price,\r\n        address seller,\r\n        uint256 stock\r\n    );\r\n    \r\n    event ProductUpdated(\r\n        uint256 id,\r\n        string name,\r\n        uint256 price,\r\n        bool isActive,\r\n        uint256 stock\r\n    );\r\n    \r\n    event ProductPurchased(\r\n        uint256 orderId,\r\n        uint256 productId,\r\n        uint256 quantity,\r\n        uint256 totalPrice,\r\n        address buyer,\r\n        address seller\r\n    );\r\n    \r\n    event OrderCompleted(uint256 orderId);\r\n    event OrderCancelled(uint256 orderId);\r\n    \r\n    constructor() {\r\n        owner = msg.sender;\r\n    }\r\n    \r\n    modifier onlyOwner() {\r\n        require(msg.sender == owner, \"Only the owner can perform this action\");\r\n        _;\r\n    }\r\n    \r\n    modifier onlySeller(uint256 _productId) {\r\n        require(products[_productId].seller == msg.sender, \"Only the seller can perform this action\");\r\n        _;\r\n    }\r\n    \r\n    modifier onlyBuyer(uint256 _orderId) {\r\n        require(orders[_orderId].buyer == msg.sender, \"Only the buyer can perform this action\");\r\n        _;\r\n    }\r\n    \r\n    /**\r\n     * @dev Create a new product\r\n     */\r\n    function createProduct(\r\n        string memory _name,\r\n        string memory _description,\r\n        uint256 _price,\r\n        uint256 _stock\r\n    ) public returns (uint256) {\r\n        require(bytes(_name).length > 0, \"Product name cannot be empty\");\r\n        require(_price > 0, \"Product price must be greater than 0\");\r\n        require(_stock > 0, \"Product stock must be greater than 0\");\r\n        \r\n        productCount++;\r\n        \r\n        products[productCount] = Product({\r\n            id: productCount,\r\n            name: _name,\r\n            description: _description,\r\n            price: _price,\r\n            seller: payable(msg.sender),\r\n            isActive: true,\r\n            stock: _stock\r\n        });\r\n        \r\n        userProducts[msg.sender].push(productCount);\r\n        \r\n        emit ProductCreated(productCount, _name, _price, msg.sender, _stock);\r\n        \r\n        return productCount;\r\n    }\r\n    \r\n    /**\r\n     * @dev Update product details\r\n     */\r\n    function updateProduct(\r\n        uint256 _productId,\r\n        string memory _name,\r\n        string memory _description,\r\n        uint256 _price,\r\n        bool _isActive,\r\n        uint256 _stock\r\n    ) public onlySeller(_productId) {\r\n        require(_productId > 0 && _productId <= productCount, \"Invalid product ID\");\r\n        require(bytes(_name).length > 0, \"Product name cannot be empty\");\r\n        require(_price > 0, \"Product price must be greater than 0\");\r\n        \r\n        Product storage product = products[_productId];\r\n        \r\n        product.name = _name;\r\n        product.description = _description;\r\n        product.price = _price;\r\n        product.isActive = _isActive;\r\n        product.stock = _stock;\r\n        \r\n        emit ProductUpdated(_productId, _name, _price, _isActive, _stock);\r\n    }\r\n    \r\n    /**\r\n     * @dev Purchase a product\r\n     */\r\n    function purchaseProduct(uint256 _productId, uint256 _quantity) public payable returns (uint256) {\r\n        require(_productId > 0 && _productId <= productCount, \"Invalid product ID\");\r\n        \r\n        Product storage product = products[_productId];\r\n        \r\n        require(product.isActive, \"Product is not available for purchase\");\r\n        require(product.stock >= _quantity, \"Not enough stock available\");\r\n        require(product.seller != msg.sender, \"You cannot buy your own product\");\r\n        \r\n        uint256 totalPrice = product.price * _quantity;\r\n        require(msg.value >= totalPrice, \"Insufficient funds sent\");\r\n        \r\n        orderCount++;\r\n        \r\n        orders[orderCount] = Order({\r\n            id: orderCount,\r\n            productId: _productId,\r\n            quantity: _quantity,\r\n            totalPrice: totalPrice,\r\n            buyer: msg.sender,\r\n            seller: product.seller,\r\n            isCompleted: false,\r\n            isCancelled: false\r\n        });\r\n        \r\n        userOrders[msg.sender].push(orderCount);\r\n        \r\n        // Update product stock\r\n        product.stock -= _quantity;\r\n        \r\n        // Transfer funds to seller\r\n        product.seller.transfer(totalPrice);\r\n        \r\n        // Refund excess payment\r\n        if (msg.value > totalPrice) {\r\n            payable(msg.sender).transfer(msg.value - totalPrice);\r\n        }\r\n        \r\n        emit ProductPurchased(orderCount, _productId, _quantity, totalPrice, msg.sender, product.seller);\r\n        \r\n        return orderCount;\r\n    }\r\n    \r\n    /**\r\n     * @dev Complete an order (confirm receipt)\r\n     */\r\n    function completeOrder(uint256 _orderId) public onlyBuyer(_orderId) {\r\n        require(_orderId > 0 && _orderId <= orderCount, \"Invalid order ID\");\r\n        \r\n        Order storage order = orders[_orderId];\r\n        \r\n        require(!order.isCompleted, \"Order is already completed\");\r\n        require(!order.isCancelled, \"Order is cancelled\");\r\n        \r\n        order.isCompleted = true;\r\n        \r\n        emit OrderCompleted(_orderId);\r\n    }\r\n    \r\n    /**\r\n     * @dev Cancel an order (only owner can cancel for dispute resolution)\r\n     */\r\n    function cancelOrder(uint256 _orderId) public onlyOwner {\r\n        require(_orderId > 0 && _orderId <= orderCount, \"Invalid order ID\");\r\n        \r\n        Order storage order = orders[_orderId];\r\n        \r\n        require(!order.isCompleted, \"Order is already completed\");\r\n        require(!order.isCancelled, \"Order is already cancelled\");\r\n        \r\n        order.isCancelled = true;\r\n        \r\n        emit OrderCancelled(_orderId);\r\n    }\r\n    \r\n    /**\r\n     * @dev Get all products created by a seller\r\n     */\r\n    function getSellerProducts() public view returns (uint256[] memory) {\r\n        return userProducts[msg.sender];\r\n    }\r\n    \r\n    /**\r\n     * @dev Get all orders placed by a buyer\r\n     */\r\n    function getBuyerOrders() public view returns (uint256[] memory) {\r\n        return userOrders[msg.sender];\r\n    }\r\n    \r\n    /**\r\n     * @dev Get product details\r\n     */\r\n    function getProduct(uint256 _productId) public view returns (\r\n        uint256 id,\r\n        string memory name,\r\n        string memory description,\r\n        uint256 price,\r\n        address seller,\r\n        bool isActive,\r\n        uint256 stock\r\n    ) {\r\n        require(_productId > 0 && _productId <= productCount, \"Invalid product ID\");\r\n        \r\n        Product memory product = products[_productId];\r\n        \r\n        return (\r\n            product.id,\r\n            product.name,\r\n            product.description,\r\n            product.price,\r\n            product.seller,\r\n            product.isActive,\r\n            product.stock\r\n        );\r\n    }\r\n    \r\n    /**\r\n     * @dev Get order details\r\n     */\r\n    function getOrder(uint256 _orderId) public view returns (\r\n        uint256 id,\r\n        uint256 productId,\r\n        uint256 quantity,\r\n        uint256 totalPrice,\r\n        address buyer,\r\n        address seller,\r\n        bool isCompleted,\r\n        bool isCancelled\r\n    ) {\r\n        require(_orderId > 0 && _orderId <= orderCount, \"Invalid order ID\");\r\n        \r\n        Order memory order = orders[_orderId];\r\n        \r\n        return (\r\n            order.id,\r\n            order.productId,\r\n            order.quantity,\r\n            order.totalPrice,\r\n            order.buyer,\r\n            order.seller,\r\n            order.isCompleted,\r\n            order.isCancelled\r\n        );\r\n    }\r\n}",
  "sourcePath": "C:\\Users\\julie\\OneDrive - Shri Vile Parle Kelavani Mandal\\MPSTME\\Notes and Assingments\\SEM 10\\DC\\project\\test1\\contracts\\Marketplace.sol",
  "compiler": {
    "name": "solc",
    "version": "0.8.19+commit.7dd6d404.Emscripten.clang"
  },
  "schemaVersion": "3.4.16",
  "updatedAt": "2025-04-10T15:21:12.916Z",
  "networkType": "ethereum",
  "devdoc": {
    "details": "Main contract for the blockchain e-commerce platform",
    "kind": "dev",
    "methods": {
      "cancelOrder(uint256)": {
        "details": "Cancel an order (only owner can cancel for dispute resolution)"
      },
      "completeOrder(uint256)": {
        "details": "Complete an order (confirm receipt)"
      },
      "createProduct(string,string,uint256,uint256)": {
        "details": "Create a new product"
      },
      "getBuyerOrders()": {
        "details": "Get all orders placed by a buyer"
      },
      "getOrder(uint256)": {
        "details": "Get order details"
      },
      "getProduct(uint256)": {
        "details": "Get product details"
      },
      "getSellerProducts()": {
        "details": "Get all products created by a seller"
      },
      "purchaseProduct(uint256,uint256)": {
        "details": "Purchase a product"
      },
      "updateProduct(uint256,string,string,uint256,bool,uint256)": {
        "details": "Update product details"
      }
    },
    "title": "Marketplace",
    "version": 1
  },
  "userdoc": {
    "kind": "user",
    "methods": {},
    "version": 1
  }
}